:060000000A128A110C280F
:10000800FE00030EF2000A08F3000A128A111528EE
:100018000A128A110F28F601F70183010A128A11C0
:100028009128831203130C1F1A281B2875281F0CEC
:10003800F000700C0F39053A031D232824284528A1
:100048001E08F0000310700C763E95001E0801395A
:10005800F000F00EF00D17087006DF3970069700F3
:100068001E08F00007300310F00CFF3E031D372870
:100078007008F100F10E17087106EF397106970044
:1000880073281F0CF000700C0F39063A031D4D2819
:100098004E286F281E08F0000310700C763E9B0057
:1000A8001E080139F000F00EF00D17087006DF3950
:1000B800700697001E08F00007300310F00CFF3E92
:1000C800031D61287008F100F10E17087106EF3959
:1000D8007106970073281E08F0007008F6000C13CC
:1000E8008A280B1D782879288A287708013EF0008D
:1000F8007008F70076087702031C8328842886286E
:10010800081087280814E13081000B1173088A0051
:10011800720E8300FE0E7E0E09000A128A11372124
:100128000A128A110A128A114E210A128A110A1217
:100138008A1104210A128A110A128A11E6200A1267
:100148008A110A128A1119210A128A110A128A11AD
:1001580043210A128A110A128A112A210A128A11C3
:10016800831203139F149F18BA28BB28B7281F0CA3
:10017800F500750C0F39053A031DC328C428C92892
:100188001F08C33918389F00DB281F0CF500750CB1
:100198000F39063A031DD128D228D7281F08C3399A
:1001A8001C389F00DB281F08C33914389F002130F2
:1001B800F500F50BDD28831203139F14B7280A12E4
:1001C8008A110C28831603130715FA3092003F3062
:1001D8008312031397051708F0390C3897000F306E
:1001E8009500CF3097058C100330920412158C1CA3
:1001F800FE28FF28FB288C1083160313071108001C
:10020800831603139F131F129F12831203131F08D1
:100218003F3980389F001F08C33914389F001F14C6
:100228002130F400F40B16290800831603138714F1
:10023800831203131D08F0390C389D000F309B0002
:100248001D129D12831603138710080083160313CB
:10025800811201128111011181100110E130831204
:10026800031381000800E030831603178800890112
:1002780083160313880183120313880108008B1760
:100288000B178B160B11831603130C17831203130A
:100298000C130800831603130F178F160F160F146D
:0202A80008004C
:04400E00D420FF3F7C
:00000001FF
